{
  "contractName": "DStorage",
  "abi": [
    {
      "inputs": [],
      "payable": false,
      "stateMutability": "nonpayable",
      "type": "constructor"
    },
    {
      "anonymous": false,
      "inputs": [
        {
          "indexed": false,
          "internalType": "uint256",
          "name": "fileId",
          "type": "uint256"
        },
        {
          "indexed": false,
          "internalType": "string",
          "name": "fileHash",
          "type": "string"
        },
        {
          "indexed": false,
          "internalType": "uint256",
          "name": "fileSize",
          "type": "uint256"
        },
        {
          "indexed": false,
          "internalType": "string",
          "name": "fileType",
          "type": "string"
        },
        {
          "indexed": false,
          "internalType": "string",
          "name": "fileName",
          "type": "string"
        },
        {
          "indexed": false,
          "internalType": "string",
          "name": "fileDescription",
          "type": "string"
        },
        {
          "indexed": false,
          "internalType": "uint256",
          "name": "uploadTime",
          "type": "uint256"
        },
        {
          "indexed": false,
          "internalType": "uint256",
          "name": "voted",
          "type": "uint256"
        },
        {
          "indexed": false,
          "internalType": "address payable",
          "name": "uploader",
          "type": "address"
        }
      ],
      "name": "FileUploaded",
      "type": "event"
    },
    {
      "anonymous": false,
      "inputs": [
        {
          "indexed": false,
          "internalType": "address",
          "name": "from",
          "type": "address"
        }
      ],
      "name": "Sent",
      "type": "event"
    },
    {
      "constant": true,
      "inputs": [
        {
          "internalType": "address",
          "name": "",
          "type": "address"
        }
      ],
      "name": "all",
      "outputs": [
        {
          "internalType": "uint256",
          "name": "",
          "type": "uint256"
        }
      ],
      "payable": false,
      "stateMutability": "view",
      "type": "function"
    },
    {
      "constant": true,
      "inputs": [],
      "name": "fileCoun",
      "outputs": [
        {
          "internalType": "uint256",
          "name": "",
          "type": "uint256"
        }
      ],
      "payable": false,
      "stateMutability": "view",
      "type": "function"
    },
    {
      "constant": true,
      "inputs": [],
      "name": "fileCount",
      "outputs": [
        {
          "internalType": "uint256",
          "name": "",
          "type": "uint256"
        }
      ],
      "payable": false,
      "stateMutability": "view",
      "type": "function"
    },
    {
      "constant": true,
      "inputs": [
        {
          "internalType": "uint256",
          "name": "",
          "type": "uint256"
        }
      ],
      "name": "files",
      "outputs": [
        {
          "internalType": "uint256",
          "name": "fileId",
          "type": "uint256"
        },
        {
          "internalType": "string",
          "name": "fileHash",
          "type": "string"
        },
        {
          "internalType": "uint256",
          "name": "fileSize",
          "type": "uint256"
        },
        {
          "internalType": "string",
          "name": "fileType",
          "type": "string"
        },
        {
          "internalType": "string",
          "name": "fileName",
          "type": "string"
        },
        {
          "internalType": "string",
          "name": "fileDescription",
          "type": "string"
        },
        {
          "internalType": "uint256",
          "name": "uploadTime",
          "type": "uint256"
        },
        {
          "internalType": "bool",
          "name": "t",
          "type": "bool"
        },
        {
          "internalType": "uint256",
          "name": "voted",
          "type": "uint256"
        },
        {
          "internalType": "bool",
          "name": "vote",
          "type": "bool"
        },
        {
          "internalType": "address payable",
          "name": "uploader",
          "type": "address"
        }
      ],
      "payable": false,
      "stateMutability": "view",
      "type": "function"
    },
    {
      "constant": true,
      "inputs": [
        {
          "internalType": "address",
          "name": "",
          "type": "address"
        }
      ],
      "name": "filess",
      "outputs": [
        {
          "internalType": "uint256",
          "name": "fileId",
          "type": "uint256"
        },
        {
          "internalType": "string",
          "name": "fileHash",
          "type": "string"
        },
        {
          "internalType": "uint256",
          "name": "fileSize",
          "type": "uint256"
        },
        {
          "internalType": "string",
          "name": "fileType",
          "type": "string"
        },
        {
          "internalType": "string",
          "name": "fileName",
          "type": "string"
        },
        {
          "internalType": "string",
          "name": "fileDescription",
          "type": "string"
        },
        {
          "internalType": "uint256",
          "name": "uploadTime",
          "type": "uint256"
        },
        {
          "internalType": "bool",
          "name": "t",
          "type": "bool"
        },
        {
          "internalType": "uint256",
          "name": "voted",
          "type": "uint256"
        },
        {
          "internalType": "bool",
          "name": "vote",
          "type": "bool"
        },
        {
          "internalType": "address payable",
          "name": "uploader",
          "type": "address"
        }
      ],
      "payable": false,
      "stateMutability": "view",
      "type": "function"
    },
    {
      "constant": true,
      "inputs": [
        {
          "internalType": "address",
          "name": "",
          "type": "address"
        }
      ],
      "name": "fun",
      "outputs": [
        {
          "internalType": "uint256",
          "name": "",
          "type": "uint256"
        }
      ],
      "payable": false,
      "stateMutability": "view",
      "type": "function"
    },
    {
      "constant": true,
      "inputs": [
        {
          "internalType": "uint256",
          "name": "",
          "type": "uint256"
        }
      ],
      "name": "hashArray",
      "outputs": [
        {
          "internalType": "string",
          "name": "",
          "type": "string"
        }
      ],
      "payable": false,
      "stateMutability": "view",
      "type": "function"
    },
    {
      "constant": true,
      "inputs": [],
      "name": "name",
      "outputs": [
        {
          "internalType": "string",
          "name": "",
          "type": "string"
        }
      ],
      "payable": false,
      "stateMutability": "view",
      "type": "function"
    },
    {
      "constant": true,
      "inputs": [
        {
          "internalType": "address",
          "name": "",
          "type": "address"
        }
      ],
      "name": "name1",
      "outputs": [
        {
          "internalType": "string",
          "name": "",
          "type": "string"
        }
      ],
      "payable": false,
      "stateMutability": "view",
      "type": "function"
    },
    {
      "constant": true,
      "inputs": [
        {
          "internalType": "address",
          "name": "",
          "type": "address"
        }
      ],
      "name": "occ",
      "outputs": [
        {
          "internalType": "uint256",
          "name": "",
          "type": "uint256"
        }
      ],
      "payable": false,
      "stateMutability": "view",
      "type": "function"
    },
    {
      "constant": true,
      "inputs": [
        {
          "internalType": "address",
          "name": "",
          "type": "address"
        }
      ],
      "name": "password",
      "outputs": [
        {
          "internalType": "uint256",
          "name": "",
          "type": "uint256"
        }
      ],
      "payable": false,
      "stateMutability": "view",
      "type": "function"
    },
    {
      "constant": true,
      "inputs": [],
      "name": "psw",
      "outputs": [
        {
          "internalType": "uint256",
          "name": "",
          "type": "uint256"
        }
      ],
      "payable": false,
      "stateMutability": "view",
      "type": "function"
    },
    {
      "constant": true,
      "inputs": [
        {
          "internalType": "uint256",
          "name": "",
          "type": "uint256"
        }
      ],
      "name": "votingsss",
      "outputs": [
        {
          "internalType": "bool",
          "name": "",
          "type": "bool"
        }
      ],
      "payable": false,
      "stateMutability": "view",
      "type": "function"
    },
    {
      "constant": false,
      "inputs": [
        {
          "internalType": "uint256",
          "name": "pass",
          "type": "uint256"
        },
        {
          "internalType": "string",
          "name": "_nam",
          "type": "string"
        }
      ],
      "name": "login",
      "outputs": [],
      "payable": false,
      "stateMutability": "nonpayable",
      "type": "function"
    },
    {
      "constant": false,
      "inputs": [
        {
          "internalType": "string",
          "name": "_nam",
          "type": "string"
        }
      ],
      "name": "logout",
      "outputs": [],
      "payable": false,
      "stateMutability": "nonpayable",
      "type": "function"
    },
    {
      "constant": true,
      "inputs": [
        {
          "internalType": "uint256",
          "name": "i",
          "type": "uint256"
        }
      ],
      "name": "checkWinninProposalWithReturnValue",
      "outputs": [
        {
          "internalType": "bool",
          "name": "",
          "type": "bool"
        }
      ],
      "payable": false,
      "stateMutability": "view",
      "type": "function"
    },
    {
      "constant": false,
      "inputs": [
        {
          "internalType": "bool",
          "name": "_vote",
          "type": "bool"
        },
        {
          "internalType": "uint256",
          "name": "i",
          "type": "uint256"
        }
      ],
      "name": "voting",
      "outputs": [],
      "payable": true,
      "stateMutability": "payable",
      "type": "function"
    },
    {
      "constant": false,
      "inputs": [
        {
          "internalType": "string",
          "name": "_fileHash",
          "type": "string"
        },
        {
          "internalType": "uint256",
          "name": "_fileSize",
          "type": "uint256"
        },
        {
          "internalType": "string",
          "name": "_fileType",
          "type": "string"
        },
        {
          "internalType": "string",
          "name": "_fileName",
          "type": "string"
        },
        {
          "internalType": "string",
          "name": "_fileDescription",
          "type": "string"
        }
      ],
      "name": "uploadFile",
      "outputs": [],
      "payable": false,
      "stateMutability": "nonpayable",
      "type": "function"
    }
  ],
  "bytecode": "0x60806040526040518060400160405280600881526020017f4453746f726167650000000000000000000000000000000000000000000000008152506000908051906020019062000051929190620002b3565b506000600155607b600255600060035560646040519080825280602002602001820160405280156200009857816020015b6060815260200190600190039081620000825790505b5060069080519060200190620000b09291906200033a565b506040518060400160405280600381526020017f77656c0000000000000000000000000000000000000000000000000000000000815250600d9080519060200190620000fe929190620002b3565b506064604051908082528060200260200182016040528015620001305781602001602082028038833980820191505090505b50600e908051906020019062000148929190620003a1565b503480156200015657600080fd5b5033600760006101000a81548173ffffffffffffffffffffffffffffffffffffffff021916908373ffffffffffffffffffffffffffffffffffffffff1602179055506001600860003373ffffffffffffffffffffffffffffffffffffffff1673ffffffffffffffffffffffffffffffffffffffff16815260200190815260200160002081905550607b600b60003373ffffffffffffffffffffffffffffffffffffffff1673ffffffffffffffffffffffffffffffffffffffff168152602001908152602001600020819055506040518060400160405280600581526020017f6f776e6572000000000000000000000000000000000000000000000000000000815250600c60003373ffffffffffffffffffffffffffffffffffffffff1673ffffffffffffffffffffffffffffffffffffffff1681526020019081526020016000209080519060200190620002ac929190620002b3565b50620005ad565b828054600181600116156101000203166002900490600052602060002090601f016020900481019282601f10620002f657805160ff191683800117855562000327565b8280016001018555821562000327579182015b828111156200032657825182559160200191906001019062000309565b5b5090506200033691906200044e565b5090565b8280548282559060005260206000209081019282156200038e579160200282015b828111156200038d5782518290805190602001906200037c92919062000476565b50916020019190600101906200035b565b5b5090506200039d9190620004fd565b5090565b82805482825590600052602060002090601f016020900481019282156200043b5791602002820160005b838211156200040a57835183826101000a81548160ff0219169083151502179055509260200192600101602081600001049283019260010302620003cb565b8015620004395782816101000a81549060ff02191690556001016020816000010492830192600103026200040a565b505b5090506200044a91906200052e565b5090565b6200047391905b808211156200046f57600081600090555060010162000455565b5090565b90565b828054600181600116156101000203166002900490600052602060002090601f016020900481019282601f10620004b957805160ff1916838001178555620004ea565b82800160010185558215620004ea579182015b82811115620004e9578251825591602001919060010190620004cc565b5b509050620004f991906200044e565b5090565b6200052b91905b808211156200052757600081816200051d919062000561565b5060010162000504565b5090565b90565b6200055e91905b808211156200055a57600081816101000a81549060ff02191690555060010162000535565b5090565b90565b50805460018160011615610100020316600290046000825580601f10620005895750620005aa565b601f016020900490600052602060002090810190620005a991906200044e565b5b50565b612cf680620005bd6000396000f3fe6080604052600436106101095760003560e01c80638e4d78f611610095578063e0fdae0811610064578063e0fdae08146108da578063e5b883ad1461098e578063e82d9d33146109b9578063ec86135614610c50578063f4c714b414610cb557610109565b80638e4d78f6146107465780639788802f14610780578063b5f30ee9146107e5578063c0f216861461081057610109565b80632c4f5a17116100dc5780632c4f5a17146104c957806336078f061461059b57806343953519146105ee5780634cbee813146106195780635beb1ea4146106e157610109565b806303cf79c41461010e57806306fdde03146103815780631a6f29a4146104115780632441afce14610464575b600080fd5b34801561011a57600080fd5b5061015d6004803603602081101561013157600080fd5b81019080803573ffffffffffffffffffffffffffffffffffffffff169060200190929190505050610f12565b604051808c8152602001806020018b81526020018060200180602001806020018a815260200189151515158152602001888152602001871515151581526020018673ffffffffffffffffffffffffffffffffffffffff1673ffffffffffffffffffffffffffffffffffffffff16815260200185810385528f818151815260200191508051906020019080838360005b838110156102075780820151818401526020810190506101ec565b50505050905090810190601f1680156102345780820380516001836020036101000a031916815260200191505b5085810384528d818151815260200191508051906020019080838360005b8381101561026d578082015181840152602081019050610252565b50505050905090810190601f16801561029a5780820380516001836020036101000a031916815260200191505b5085810383528c818151815260200191508051906020019080838360005b838110156102d35780820151818401526020810190506102b8565b50505050905090810190601f1680156103005780820380516001836020036101000a031916815260200191505b5085810382528b818151815260200191508051906020019080838360005b8381101561033957808201518184015260208101905061031e565b50505050905090810190601f1680156103665780820380516001836020036101000a031916815260200191505b509f5050505050505050505050505050505060405180910390f35b34801561038d57600080fd5b50610396611206565b6040518080602001828103825283818151815260200191508051906020019080838360005b838110156103d65780820151818401526020810190506103bb565b50505050905090810190601f1680156104035780820380516001836020036101000a031916815260200191505b509250505060405180910390f35b34801561041d57600080fd5b5061044a6004803603602081101561043457600080fd5b81019080803590602001909291905050506112a4565b604051808215151515815260200191505060405180910390f35b34801561047057600080fd5b506104b36004803603602081101561048757600080fd5b81019080803573ffffffffffffffffffffffffffffffffffffffff1690602001909291905050506112d5565b6040518082815260200191505060405180910390f35b3480156104d557600080fd5b50610599600480360360408110156104ec57600080fd5b81019080803590602001909291908035906020019064010000000081111561051357600080fd5b82018360208201111561052557600080fd5b8035906020019184600183028401116401000000008311171561054757600080fd5b91908080601f016020809104026020016040519081016040528093929190818152602001838380828437600081840152601f19601f8201169050808301925050505050505091929192905050506112ed565b005b3480156105a757600080fd5b506105d4600480360360208110156105be57600080fd5b81019080803590602001909291905050506118cd565b604051808215151515815260200191505060405180910390f35b3480156105fa57600080fd5b506106036119cc565b6040518082815260200191505060405180910390f35b34801561062557600080fd5b506106df6004803603602081101561063c57600080fd5b810190808035906020019064010000000081111561065957600080fd5b82018360208201111561066b57600080fd5b8035906020019184600183028401116401000000008311171561068d57600080fd5b91908080601f016020809104026020016040519081016040528093929190818152602001838380828437600081840152601f19601f8201169050808301925050505050505091929192905050506119d2565b005b3480156106ed57600080fd5b506107306004803603602081101561070457600080fd5b81019080803573ffffffffffffffffffffffffffffffffffffffff169060200190929190505050611a1a565b6040518082815260200191505060405180910390f35b61077e6004803603604081101561075c57600080fd5b8101908080351515906020019092919080359060200190929190505050611a32565b005b34801561078c57600080fd5b506107cf600480360360208110156107a357600080fd5b81019080803573ffffffffffffffffffffffffffffffffffffffff169060200190929190505050611dff565b6040518082815260200191505060405180910390f35b3480156107f157600080fd5b506107fa611e17565b6040518082815260200191505060405180910390f35b34801561081c57600080fd5b5061085f6004803603602081101561083357600080fd5b81019080803573ffffffffffffffffffffffffffffffffffffffff169060200190929190505050611e1d565b6040518080602001828103825283818151815260200191508051906020019080838360005b8381101561089f578082015181840152602081019050610884565b50505050905090810190601f1680156108cc5780820380516001836020036101000a031916815260200191505b509250505060405180910390f35b3480156108e657600080fd5b50610913600480360360208110156108fd57600080fd5b8101908080359060200190929190505050611ecd565b6040518080602001828103825283818151815260200191508051906020019080838360005b83811015610953578082015181840152602081019050610938565b50505050905090810190601f1680156109805780820380516001836020036101000a031916815260200191505b509250505060405180910390f35b34801561099a57600080fd5b506109a3611f86565b6040518082815260200191505060405180910390f35b3480156109c557600080fd5b50610c4e600480360360a08110156109dc57600080fd5b81019080803590602001906401000000008111156109f957600080fd5b820183602082011115610a0b57600080fd5b80359060200191846001830284011164010000000083111715610a2d57600080fd5b91908080601f016020809104026020016040519081016040528093929190818152602001838380828437600081840152601f19601f8201169050808301925050505050505091929192908035906020019092919080359060200190640100000000811115610a9a57600080fd5b820183602082011115610aac57600080fd5b80359060200191846001830284011164010000000083111715610ace57600080fd5b91908080601f016020809104026020016040519081016040528093929190818152602001838380828437600081840152601f19601f82011690508083019250505050505050919291929080359060200190640100000000811115610b3157600080fd5b820183602082011115610b4357600080fd5b80359060200191846001830284011164010000000083111715610b6557600080fd5b91908080601f016020809104026020016040519081016040528093929190818152602001838380828437600081840152601f19601f82011690508083019250505050505050919291929080359060200190640100000000811115610bc857600080fd5b820183602082011115610bda57600080fd5b80359060200191846001830284011164010000000083111715610bfc57600080fd5b91908080601f016020809104026020016040519081016040528093929190818152602001838380828437600081840152601f19601f820116905080830192505050505050509192919290505050611f8c565b005b348015610c5c57600080fd5b50610c9f60048036036020811015610c7357600080fd5b81019080803573ffffffffffffffffffffffffffffffffffffffff169060200190929190505050612890565b6040518082815260200191505060405180910390f35b348015610cc157600080fd5b50610cee60048036036020811015610cd857600080fd5b81019080803590602001909291905050506128a8565b604051808c8152602001806020018b81526020018060200180602001806020018a815260200189151515158152602001888152602001871515151581526020018673ffffffffffffffffffffffffffffffffffffffff1673ffffffffffffffffffffffffffffffffffffffff16815260200185810385528f818151815260200191508051906020019080838360005b83811015610d98578082015181840152602081019050610d7d565b50505050905090810190601f168015610dc55780820380516001836020036101000a031916815260200191505b5085810384528d818151815260200191508051906020019080838360005b83811015610dfe578082015181840152602081019050610de3565b50505050905090810190601f168015610e2b5780820380516001836020036101000a031916815260200191505b5085810383528c818151815260200191508051906020019080838360005b83811015610e64578082015181840152602081019050610e49565b50505050905090810190601f168015610e915780820380516001836020036101000a031916815260200191505b5085810382528b818151815260200191508051906020019080838360005b83811015610eca578082015181840152602081019050610eaf565b50505050905090810190601f168015610ef75780820380516001836020036101000a031916815260200191505b509f5050505050505050505050505050505060405180910390f35b6005602052806000526040600020600091509050806000015490806001018054600181600116156101000203166002900480601f016020809104026020016040519081016040528092919081815260200182805460018160011615610100020316600290048015610fc45780601f10610f9957610100808354040283529160200191610fc4565b820191906000526020600020905b815481529060010190602001808311610fa757829003601f168201915b505050505090806002015490806003018054600181600116156101000203166002900480601f0160208091040260200160405190810160405280929190818152602001828054600181600116156101000203166002900480156110685780601f1061103d57610100808354040283529160200191611068565b820191906000526020600020905b81548152906001019060200180831161104b57829003601f168201915b505050505090806004018054600181600116156101000203166002900480601f0160208091040260200160405190810160405280929190818152602001828054600181600116156101000203166002900480156111065780601f106110db57610100808354040283529160200191611106565b820191906000526020600020905b8154815290600101906020018083116110e957829003601f168201915b505050505090806005018054600181600116156101000203166002900480601f0160208091040260200160405190810160405280929190818152602001828054600181600116156101000203166002900480156111a45780601f10611179576101008083540402835291602001916111a4565b820191906000526020600020905b81548152906001019060200180831161118757829003601f168201915b5050505050908060060154908060070160009054906101000a900460ff16908060080154908060090160009054906101000a900460ff16908060090160019054906101000a900473ffffffffffffffffffffffffffffffffffffffff1690508b565b60008054600181600116156101000203166002900480601f01602080910402602001604051908101604052809291908181526020018280546001816001161561010002031660029004801561129c5780601f106112715761010080835404028352916020019161129c565b820191906000526020600020905b81548152906001019060200180831161127f57829003601f168201915b505050505081565b600e81815481106112b157fe5b9060005260206000209060209182820401919006915054906101000a900460ff1681565b60086020528060005260406000206000915090505481565b60606040518060400160405280600581526020017f6f776e657200000000000000000000000000000000000000000000000000000081525090506060600c60003373ffffffffffffffffffffffffffffffffffffffff1673ffffffffffffffffffffffffffffffffffffffff1681526020019081526020016000208054600181600116156101000203166002900480601f0160208091040260200160405190810160405280929190818152602001828054600181600116156101000203166002900480156113fc5780601f106113d1576101008083540402835291602001916113fc565b820191906000526020600020905b8154815290600101906020018083116113df57829003601f168201915b505050505090506001600860003373ffffffffffffffffffffffffffffffffffffffff1673ffffffffffffffffffffffffffffffffffffffff1681526020019081526020016000205414156116755783600b60003373ffffffffffffffffffffffffffffffffffffffff1673ffffffffffffffffffffffffffffffffffffffff16815260200190815260200160002054141561160c576001600a60003373ffffffffffffffffffffffffffffffffffffffff1673ffffffffffffffffffffffffffffffffffffffff16815260200190815260200160002081905550806040516020018082805190602001908083835b6020831061150e57805182526020820191506020810190506020830392506114eb565b6001836020036101000a03801982511681845116808217855250505050505090500191505060405160208183030381529060405280519060200120826040516020018082805190602001908083835b60208310611580578051825260208201915060208101905060208303925061155d565b6001836020036101000a038019825116818451168082178552505050505050905001915050604051602081830303815290604052805190602001201415611607576001600960003373ffffffffffffffffffffffffffffffffffffffff1673ffffffffffffffffffffffffffffffffffffffff168152602001908152602001600020819055505b611674565b7fad9eefc313550eb26658f0b86c43d562b31167aa21d08ad7c5989630d6f0cd1c33604051808273ffffffffffffffffffffffffffffffffffffffff1673ffffffffffffffffffffffffffffffffffffffff16815260200191505060405180910390a1600080fd5b5b83600b60003373ffffffffffffffffffffffffffffffffffffffff1673ffffffffffffffffffffffffffffffffffffffff1681526020019081526020016000208190555082600c60003373ffffffffffffffffffffffffffffffffffffffff1673ffffffffffffffffffffffffffffffffffffffff168152602001908152602001600020908051906020019061170c929190612b9c565b50826040516020018082805190602001908083835b602083106117445780518252602082019150602081019050602083039250611721565b6001836020036101000a03801982511681845116808217855250505050505090500191505060405160208183030381529060405280519060200120826040516020018082805190602001908083835b602083106117b65780518252602082019150602081019050602083039250611793565b6001836020036101000a03801982511681845116808217855250505050505090500191505060405160208183030381529060405280519060200120141561183d576001600960003373ffffffffffffffffffffffffffffffffffffffff1673ffffffffffffffffffffffffffffffffffffffff168152602001908152602001600020819055505b6001600860003373ffffffffffffffffffffffffffffffffffffffff1673ffffffffffffffffffffffffffffffffffffffff168152602001908152602001600020819055506001600a60003373ffffffffffffffffffffffffffffffffffffffff1673ffffffffffffffffffffffffffffffffffffffff1681526020019081526020016000208190555050505050565b60008060006004600085815260200190815260200160002060090160009054906101000a900460ff16905060006004600086815260200190815260200160002060070160009054906101000a900460ff1690506000600e868154811061192f57fe5b90600052602060002090602091828204019190069054906101000a900460ff16905060006004600088815260200190815260200160002060080154905060038114156119ba576001151584151514156119b0576001151583151514156119a6576001151582151514156119a157600194505b6119ab565b600094505b6119b5565b600094505b6119bf565b600080fd5b8495505050505050919050565b60035481565b6000600a60003373ffffffffffffffffffffffffffffffffffffffff1673ffffffffffffffffffffffffffffffffffffffff1681526020019081526020016000208190555050565b600b6020528060005260406000206000915090505481565b60606040518060400160405280600581526020017f6f776e657200000000000000000000000000000000000000000000000000000081525090506060600c60003373ffffffffffffffffffffffffffffffffffffffff1673ffffffffffffffffffffffffffffffffffffffff1681526020019081526020016000208054600181600116156101000203166002900480601f016020809104026020016040519081016040528092919081815260200182805460018160011615610100020316600290048015611b415780601f10611b1657610100808354040283529160200191611b41565b820191906000526020600020905b815481529060010190602001808311611b2457829003601f168201915b50505050509050806040516020018082805190602001908083835b60208310611b7f5780518252602082019150602081019050602083039250611b5c565b6001836020036101000a03801982511681845116808217855250505050505090500191505060405160208183030381529060405280519060200120826040516020018082805190602001908083835b60208310611bf15780518252602082019150602081019050602083039250611bce565b6001836020036101000a0380198251168184511680821785525050505050509050019150506040516020818303038152906040528051906020012014611c9f576040517f08c379a00000000000000000000000000000000000000000000000000000000081526004018080602001828103825260148152602001807f6e6f7420656c696769626c6520746f20766f746500000000000000000000000081525060200191505060405180910390fd5b600060046000858152602001908152602001600020600801541415611d0d57836004600085815260200190815260200160002060090160006101000a81548160ff02191690831515021790555060016004600085815260200190815260200160002060080181905550611df9565b600160046000858152602001908152602001600020600801541415611d7b57836004600085815260200190815260200160002060070160006101000a81548160ff02191690831515021790555060026004600085815260200190815260200160002060080181905550611df8565b600260046000858152602001908152602001600020600801541415611df25783600e8481548110611da857fe5b90600052602060002090602091828204019190066101000a81548160ff02191690831515021790555060036004600085815260200190815260200160002060080181905550611df7565b600080fd5b5b5b50505050565b600a6020528060005260406000206000915090505481565b60025481565b600c6020528060005260406000206000915090508054600181600116156101000203166002900480601f016020809104026020016040519081016040528092919081815260200182805460018160011615610100020316600290048015611ec55780601f10611e9a57610100808354040283529160200191611ec5565b820191906000526020600020905b815481529060010190602001808311611ea857829003601f168201915b505050505081565b60068181548110611eda57fe5b906000526020600020016000915090508054600181600116156101000203166002900480601f016020809104026020016040519081016040528092919081815260200182805460018160011615610100020316600290048015611f7e5780601f10611f5357610100808354040283529160200191611f7e565b820191906000526020600020905b815481529060010190602001808311611f6157829003601f168201915b505050505081565b60015481565b6000600190505b60035481116121b657606060068281548110611fab57fe5b906000526020600020018054600181600116156101000203166002900480601f0160208091040260200160405190810160405280929190818152602001828054600181600116156101000203166002900480156120495780601f1061201e57610100808354040283529160200191612049565b820191906000526020600020905b81548152906001019060200180831161202c57829003601f168201915b50505050509050806040516020018082805190602001908083835b602083106120875780518252602082019150602081019050602083039250612064565b6001836020036101000a03801982511681845116808217855250505050505090500191505060405160208183030381529060405280519060200120876040516020018082805190602001908083835b602083106120f957805182526020820191506020810190506020830392506120d6565b6001836020036101000a0380198251168184511680821785525050505050509050019150506040516020818303038152906040528051906020012014156121a8576040517f08c379a000000000000000000000000000000000000000000000000000000000815260040180806020018281038252600f8152602001807f436f70797269676874206973737565000000000000000000000000000000000081525060200191505060405180910390fd5b508080600101915050611f93565b506001600a60003373ffffffffffffffffffffffffffffffffffffffff1673ffffffffffffffffffffffffffffffffffffffff168152602001908152602001600020541461220357600080fd5b600085511161221157600080fd5b600083511161221f57600080fd5b600081511161222d57600080fd5b600082511161223b57600080fd5b600073ffffffffffffffffffffffffffffffffffffffff163373ffffffffffffffffffffffffffffffffffffffff16141561227557600080fd5b6000841161228257600080fd5b600080905060008090506000809050600080905060036000815480929190600101919050555060405180610160016040528060035481526020018a8152602001898152602001888152602001878152602001868152602001428152602001841515815260200185815260200183151581526020013373ffffffffffffffffffffffffffffffffffffffff1681525060046000600354815260200190815260200160002060008201518160000155602082015181600101908051906020019061234b929190612c1c565b50604082015181600201556060820151816003019080519060200190612372929190612c1c565b50608082015181600401908051906020019061238f929190612c1c565b5060a08201518160050190805190602001906123ac929190612c1c565b5060c0820151816006015560e08201518160070160006101000a81548160ff02191690831515021790555061010082015181600801556101208201518160090160006101000a81548160ff0219169083151502179055506101408201518160090160016101000a81548173ffffffffffffffffffffffffffffffffffffffff021916908373ffffffffffffffffffffffffffffffffffffffff1602179055509050508860066003548154811061245e57fe5b90600052602060002001908051906020019061247b929190612b9c565b5060405180610160016040528060035481526020018a8152602001898152602001888152602001878152602001868152602001428152602001841515815260200185815260200183151581526020013373ffffffffffffffffffffffffffffffffffffffff16815250600560003373ffffffffffffffffffffffffffffffffffffffff1673ffffffffffffffffffffffffffffffffffffffff168152602001908152602001600020600082015181600001556020820151816001019080519060200190612549929190612c1c565b50604082015181600201556060820151816003019080519060200190612570929190612c1c565b50608082015181600401908051906020019061258d929190612c1c565b5060a08201518160050190805190602001906125aa929190612c1c565b5060c0820151816006015560e08201518160070160006101000a81548160ff02191690831515021790555061010082015181600801556101208201518160090160006101000a81548160ff0219169083151502179055506101408201518160090160016101000a81548173ffffffffffffffffffffffffffffffffffffffff021916908373ffffffffffffffffffffffffffffffffffffffff1602179055509050507f8c1183ee66da0139f6b9d2da1ef32528e4fc7b4b90e1597fc1a0d26e25b208556003548a8a8a8a8a428b33604051808a8152602001806020018981526020018060200180602001806020018881526020018781526020018673ffffffffffffffffffffffffffffffffffffffff1673ffffffffffffffffffffffffffffffffffffffff16815260200185810385528d818151815260200191508051906020019080838360005b8381101561270e5780820151818401526020810190506126f3565b50505050905090810190601f16801561273b5780820380516001836020036101000a031916815260200191505b5085810384528b818151815260200191508051906020019080838360005b83811015612774578082015181840152602081019050612759565b50505050905090810190601f1680156127a15780820380516001836020036101000a031916815260200191505b5085810383528a818151815260200191508051906020019080838360005b838110156127da5780820151818401526020810190506127bf565b50505050905090810190601f1680156128075780820380516001836020036101000a031916815260200191505b50858103825289818151815260200191508051906020019080838360005b83811015612840578082015181840152602081019050612825565b50505050905090810190601f16801561286d5780820380516001836020036101000a031916815260200191505b509d505050505050505050505050505060405180910390a1505050505050505050565b60096020528060005260406000206000915090505481565b6004602052806000526040600020600091509050806000015490806001018054600181600116156101000203166002900480601f01602080910402602001604051908101604052809291908181526020018280546001816001161561010002031660029004801561295a5780601f1061292f5761010080835404028352916020019161295a565b820191906000526020600020905b81548152906001019060200180831161293d57829003601f168201915b505050505090806002015490806003018054600181600116156101000203166002900480601f0160208091040260200160405190810160405280929190818152602001828054600181600116156101000203166002900480156129fe5780601f106129d3576101008083540402835291602001916129fe565b820191906000526020600020905b8154815290600101906020018083116129e157829003601f168201915b505050505090806004018054600181600116156101000203166002900480601f016020809104026020016040519081016040528092919081815260200182805460018160011615610100020316600290048015612a9c5780601f10612a7157610100808354040283529160200191612a9c565b820191906000526020600020905b815481529060010190602001808311612a7f57829003601f168201915b505050505090806005018054600181600116156101000203166002900480601f016020809104026020016040519081016040528092919081815260200182805460018160011615610100020316600290048015612b3a5780601f10612b0f57610100808354040283529160200191612b3a565b820191906000526020600020905b815481529060010190602001808311612b1d57829003601f168201915b5050505050908060060154908060070160009054906101000a900460ff16908060080154908060090160009054906101000a900460ff16908060090160019054906101000a900473ffffffffffffffffffffffffffffffffffffffff1690508b565b828054600181600116156101000203166002900490600052602060002090601f016020900481019282601f10612bdd57805160ff1916838001178555612c0b565b82800160010185558215612c0b579182015b82811115612c0a578251825591602001919060010190612bef565b5b509050612c189190612c9c565b5090565b828054600181600116156101000203166002900490600052602060002090601f016020900481019282601f10612c5d57805160ff1916838001178555612c8b565b82800160010185558215612c8b579182015b82811115612c8a578251825591602001919060010190612c6f565b5b509050612c989190612c9c565b5090565b612cbe91905b80821115612cba576000816000905550600101612ca2565b5090565b9056fea265627a7a7231582044d9dc8ce641d6c5cb51333c57a9902165d8d2cedd06e40d00b2811b81d2ea9d64736f6c63430005100032",
  "source": "pragma solidity >=0.4.21 <0.6.0;\n\ncontract DStorage {\n  string public name = 'DStorage';\n  uint public fileCoun = 0;\n  uint public psw = 123;\n  uint public fileCount = 0;\n  mapping(uint => File) public files;\n  mapping(address => File) public filess;\n  string[] public hashArray = new string[](100);\n  address owner;\n   mapping (address => uint) public occ;\n    mapping (address => uint) public fun;\n    mapping (address => uint) public all;\n     mapping (address => uint) public password;\n     //remove public if you donot want password.\n     mapping (address => string) public name1;\n    string wel =\"wel\";\n    bool[] public votingsss = new bool[](100);\n    event Sent(address from);\n\n  struct File {\n    uint fileId;\n    string fileHash;\n    uint fileSize;\n    string fileType;\n    string fileName;\n    string fileDescription;\n    uint uploadTime;\n    bool t;\n    uint voted;\n    bool vote;\n    \n\n    \n   address payable uploader;\n  }\n\n  event FileUploaded(\n    uint fileId,\n    string fileHash,\n    uint fileSize,\n    string fileType,\n    string fileName, \n    string fileDescription,\n    uint uploadTime,\n    uint voted,\n    address payable uploader\n  );\n\n  constructor() public {\n      owner =msg.sender;\n      occ[msg.sender] = 1;\n        password[msg.sender]= 123;\n         name1[msg.sender]= 'owner';\n         //all[msg.sender] = 1;\n  }\n  \n    function login(uint pass, string memory _nam )  public{\n       string memory _z = 'owner' ;\nstring memory _y = name1[msg.sender];\n        if (occ[msg.sender] == 1)\n        {\n            \n            if (password[msg.sender] == pass)\n            { \n              all[msg.sender] = 1;\n               if (keccak256(abi. encodePacked(_z)) == keccak256(abi. encodePacked(_y))) \n                 {\n                   fun[msg.sender] = 1;\n                }\n\n            }\n            else{\n                emit Sent(msg.sender);\n                revert();\n            }\n        \n        }\n        \n        password[msg.sender]=pass;\n        name1[msg.sender]= _nam;\n         if (keccak256(abi. encodePacked(_z)) == keccak256(abi. encodePacked(_nam))) \n                 {\n                   fun[msg.sender] = 1;\n                }\n        occ[msg.sender] = 1;\n        all[msg.sender] = 1;\n        \n         }\n  function logout(string memory _nam)  public{\n        \n        \n        \n        all[msg.sender] = 0;\n        \n         }\n       function checkWinninProposalWithReturnValue (uint i) public view returns (bool) {\n           bool winner;\n           bool f=files[i].vote;\n           bool s=files[i].t;\n           bool e=votingsss[i];\n           uint v =files[i].voted;\n        if( v== 3)\n        {\n            if(f== true)\n             {\n                if(s==true)\n                 {\n                   if(e==true)\n                   { \n                     winner = true;\n                   }\n                   \n                  }\n                  else\n                  {\n                    winner = false;  \n                  }\n                \n                }\n            else \n            {\n               winner = false;   \n            }\n        }\n        else {\n            \n            revert();\n        }\n        return winner;\n    }          \n \nfunction voting( bool _vote,uint i) public payable {\n     \nstring memory _z = 'owner' ;\nstring memory _y = name1[msg.sender];\n\n     \n       \n           require (keccak256(abi. encodePacked(_z)) == keccak256(abi. encodePacked(_y)) , \"not eligible to vote\") ;      \n      if(files[i].voted==0)\n      {\n          files[i].vote=_vote;\n          files[i].voted=1;\n      }\n      else if(files[i].voted==1)\n      {\n          files[i].t=_vote;\n          files[i].voted=2;\n      }\n       else if(files[i].voted==2)\n      {\n          votingsss[i]=_vote;\n          files[i].voted=3;\n      }\n      else\n      {\n          revert();\n      }\n      \n    \n\n    \n    \n}\n  function uploadFile(string memory _fileHash, uint _fileSize, string memory _fileType, string memory _fileName, string memory _fileDescription) public {\n    // string memory _ab = \"Qmep96bgCmHYLbg3mDjkmXy2ioovZhf4AsQsS9XhrZ4TVM\";\n\n    // require (keccak256(abi. encodePacked(_fileHash)) != keccak256(abi. encodePacked(_ab)) ) ;\n    // // Make sure the file hash exists\n\n    for(uint i=1; i<=fileCount; i++){\n      string memory _ab = hashArray[i];\n      require (keccak256(abi. encodePacked(_fileHash)) != keccak256(abi. encodePacked(_ab)) , \"Copyright issue\") ;\n      \n    }\nrequire(all[msg.sender] == 1);\n    require(bytes(_fileHash).length > 0);\n    // Make sure file type exists\n    require(bytes(_fileType).length > 0);\n    // Make sure file description exists\n    require(bytes(_fileDescription).length > 0);\n    // Make sure file fileName exists\n    require(bytes(_fileName).length > 0);\n    // Make sure uploader address exists\n    require(msg.sender!=address(0));\n    // Make sure file size is more than 0\n    require(_fileSize>0);\n  // bool te = false;\n    uint voteds = 0;\n    bool t = false;\n    bool vote = false;\n    bool votes = false;\n    // Increment file id\n    fileCount ++;\n\n    // Add File to the contract\n    files[fileCount] = File(fileCount, _fileHash, _fileSize, _fileType, _fileName, _fileDescription, block.timestamp,t,voteds,vote, msg.sender);\n    hashArray[fileCount]=_fileHash;\n    filess[msg.sender] = File(fileCount, _fileHash, _fileSize, _fileType, _fileName, _fileDescription, block.timestamp,t,voteds,vote, msg.sender);\n    // Trigger an event\n    emit FileUploaded(fileCount, _fileHash, _fileSize, _fileType, _fileName, _fileDescription, block.timestamp,voteds, msg.sender);\n  }\n}",
  "sourcePath": "/Users/carolmendonca/Desktop/hackathon/src/contracts/DStorage.sol",
  "compiler": {
    "name": "solc",
    "version": "0.5.16+commit.9c3226ce.Emscripten.clang"
  },
  "schemaVersion": "3.3.1",
  "updatedAt": "2021-02-14T04:03:29.467Z",
  "networkType": "ethereum",
  "devdoc": {
    "methods": {}
  },
  "userdoc": {
    "methods": {}
  }
}